:020000040800F2
:10000000F063002015B40108A1340008A3340008EF
:10001000A7340008AB340008AF340008000000002B
:10002000000000000000000000000000B3340008E1
:10003000B534000800000000B73400083735000868
:100040002FB401082FB401082FB401082FB4010800
:100050002FB401082FB401082FB40108DF9D010857
:100060002FB401082FB401082FB40108499A0108E0
:100070002FB401082FB401082FB401082FB40108D0
:100080002FB401082FB401082FB401082FB40108C0
:10009000C1CD01082FB401082FB401086966010819
:1000A0002FB40108D17401082FB401082FB401083E
:1000B000397601082FB401082FB401082FB40108C4
:1000C0002FB401082FB401082FB401082FB4010880
:1000D0002FB4010843F20008BB7E0108FD9501081A
:1000E000AF4E01082FB40108C9CD01082FB4010893
:1000F0002FB401082FB401082FB401082FB4010850
:100100002FB401082FB401082FB401082FB401083F
:10011000BD7D01088D7E01082FB401082FB40108B0
:100120002FB401082FB401082FB401082FB401081F
:1001300000F002F800F05AF80AA090E8000C82449F
:100140008344AAF10107DA4501D100F04FF8AFF27C
:10015000090EBAE80F0013F0010F18BFFB1A43F0A5
:10016000010318474C7A02006C7A02000A444FF0EF
:10017000000C10F8013B13F0070408BF10F8014B06
:100180001D1108BF10F8015B641E05D010F8016B4B
:10019000641E01F8016BF9D113F0080F1EBF10F8AF
:1001A000014BAD1C0C1B09D16D1E58BF01F801CBD2
:1001B000FAD505E014F8016B01F8016B6D1EF9D555
:1001C0009142D6D37047000000230024002500266A
:1001D000103A28BF78C1FBD8520728BF30C148BFAA
:1001E0000B6070471FB51FBD10B510BD20F0C2FBDE
:1001F0001146FFF7F7FF03F029F920F0E0FB03B405
:10020000FFF7F2FF03BC20F0E3FB0000314901439C
:10021000314A1160704770B5002100230F22C47865
:1002200004B32D4C246804F4E064C4F5E064210AAE
:10023000C1F10403CA40447804FA03F184781440FD
:1002400021430901254C0678A155047804F01F05C7
:100250000124AC4005786D11AD0005F1E025C5F82D
:10026000004109E0047804F01F050124AC401C4D56
:100270000678761145F8264070BD1A4A0A400243B6
:10028000154B1B1F1A60704739B1134A121D1268B3
:100290000243114B1B1D1A6006E00F4A121D126823
:1002A00082430D4B1B1D1A607047042808D14FF084
:1002B000E021096941F004014FF0E022116107E0FB
:1002C0004FF0E021096921F004014FF0E0221161B3
:1002D000704700000000FA050CED00E000E400E0CB
:1002E00080E100E080FFFF1F10B50446FA48844219
:1002F00008D10121401501F0EBF90021601501F052
:10030000E7F917E0F548844208D10121001501F012
:10031000DFF90021201501F0DBF90BE0F048844201
:1003200008D10121C80301F0D3F900214FF40040A6
:1003300001F0CEF910BD30B5024600200023506810
:10034000E84C20400D790C6844EA052420435060B5
:100350009068E54C2040D1E902542C434D7944EAA1
:10036000450420439060D06A20F470000C7C641E29
:10037000E4B2234340EA0350D06230BD0021016063
:10038000017141718160C16001210174704721B127
:10039000826842F00102826003E0826822F001027A
:1003A0008260704721B1826842F48072826003E00B
:1003B000826822F480728260704710B50023CBB24D
:1003C0001AB144681C43446002E044689C434460A2
:1003D00010BD816841F0080181607047014600202E
:1003E0008A6802F008020AB1012000E0002070478C
:1003F000816841F0040181607047014600208A68ED
:1004000002F004020AB1012000E00020704721B18F
:10041000826842F4A002826003E0826822F4A002B3
:1004200082607047014600208A6802F480020AB1A7
:10043000012000E00020704710B50A46002100238B
:10044000416821F46041531E41EA4331416010BDCF
:1004500021B1426842F40062426003E0426822F443
:10046000006242607047F0B504460D46002000214E
:10047000092D11DDE068A5F10A0606EB46070726FF
:1004800006FA07F18843A5F10A0606EB460603FAC9
:1004900006F10843E0600CE0206905EB45070726FC
:1004A00006FA07F1884305EB450603FA06F108430F
:1004B0002061072A0FDA606B561E06EB86071F269F
:1004C00006FA07F18843561E06EB860605FA06F182
:1004D0000843606322E00D2A0FDA206BD61F06EB7B
:1004E00086071F2606FA07F18843D61F06EB860605
:1004F00005FA06F10843206310E0E06AA2F10D0658
:1005000006EB86071F2606FA07F18843A2F10D06BF
:1005100006EB860605FA06F10843E062F0BD21B15C
:10052000826842F48012826003E0826822F48012C2
:10053000826070470146C86C80B2704766484C3094
:100540000068704721B1426842F48062426003E073
:10055000426822F480624260704721B1426842F4EE
:100560008052426003E0426822F480524260704749
:100570000A460021816821F4E041114381607047FF
:1005800021B1826842F40042826003E0826822F472
:1005900000428260704721B1826842F40212826098
:1005A00003E0826822F40212826070470146002054
:1005B0008A6802F400120AB1012000E000207047AE
:1005C000F0B504461546002000220026092911DD59
:1005D000E068A1F10A0707EB470C072707FA0CF2BE
:1005E0009043A1F10A0707EB470703FA07F210430C
:1005F000E0600CE0206901EB410C072707FA0CF2E0
:10060000904301EB410703FA07F210432061A06B0E
:10061000C0F30156EF1C06F1010CA7EB0C0707EB2A
:10062000870C1F2707FA0CF29043EF1C06F1010C10
:10063000A7EB0C0707EB870701FA07F21043A0634B
:10064000F0BD10B50A4600210023816B21F4401152
:10065000531E41EA0351816310BD08B50023009386
:100660000090009B0B440093009B1A6008BD08B5E6
:10067000024600200090009201F12800009B1844DF
:1006800000900098006880B208BD0A4600214168C9
:10069000164B1940114341607047416282627047B6
:1006A0000A460021416821F01F0111434160704753
:1006B00040B109490831096841F40001064A08328D
:1006C000116007E004490831096821F40001024A79
:1006D00008321160704700000024014000280140EA
:1006E000003C0140FFFEF0FFFDF7F1FFFFFD3FFF83
:1006F0000246002013680B400BB1012000E00020EF
:100700007047CA430260704770B50246002000235C
:1007100000240B125568CEB205EA060415681D4088
:1007200015B10CB1012000E0002070BD00220A12BA
:10073000D34303607047000001684FF6FE7211401A
:1007400001600021016041608160C1608D49884283
:1007500008D18C490839496841F00F01894A083AA3
:1007600051608AE087491431884208D185490839A7
:10077000496841F0F001834A083A51607DE08149BF
:100780002831884208D17F490839496841F47061AD
:100790007C4A083A516070E07A493C31884208D17D
:1007A00078490839496841F47041764A083A5160FD
:1007B00063E074495031884208D172490839496868
:1007C00041F470216F4A083A516056E06D49643136
:1007D000884208D16B490839496841F47001694A77
:1007E000083A516049E067497831884208D1654943
:1007F0000839496841F07061624A083A51603CE04A
:100800006149884206D1011F096841F00F01021FAA
:10081000116032E05C491431884208D15A49091FFD
:10082000096841F0F001584A121F116025E056494D
:100830002831884208D15449091F096841F4706180
:10084000514A121F116018E04F493C31884208D1CB
:100850004D49091F096841F470414B4A121F11604C
:100860000BE049495031884207D14749091F0968BF
:1008700041F47021444A121F1160704710B50022E4
:10088000026847F6F0739A430C6A8B6823430C693D
:1008900023434C6923438C692343CC6923434C6A2B
:1008A00023438C6A23431A430260CB6843600B687E
:1008B00083604B68C36010BD0021016041608160AE
:1008C000C160016141618161C16101624162816216
:1008D000704721B1026842F00102026004E0026840
:1008E0004FF6FE731A40026070471AB103680B435B
:1008F000036002E003688B43036070474160704708
:100900000146486880B2704701460020002201F08D
:1009100080531BB11C4B083B1A6802E0194B083B83
:100920001A6802EA01030BB1012000E000207047C1
:1009300000F0805119B11449091F086002E0114903
:1009400008394860704701460020002201F08053BA
:100950001BB10D4B083B1A6802E00A4B083B1A68B2
:1009600002EA01030BB1012000E00020704700F013
:10097000805119B10449091F086002E00149083992
:1009800048607047080002400804024000204449C3
:100990000860091D0860091D0860091D08604148BC
:1009A0003F4914310860704700213D498279002A8F
:1009B0003AD00A46126803689A430B461A600A1D29
:1009C000126803689A430B1D1A60027911440A6881
:1009D00003681A430A60324A0832126803689A436D
:1009E0002F4B08331A601A1D126803689A432C4B68
:1009F0000C331A604279102A0ED11A1F126803684C
:100A00001A43274B08331A601A1D126803681A43E9
:100A1000234B0C331A600DE02149427911440A68D6
:100A200003681A430A6005E0027911440A68036802
:100A30009A430A6070470021016001710C214171E5
:100A40000021817170471649103109680143144A29
:100A500010321160704701460020114A14321268AA
:100A60000A400AB1012000E0002070470C4914310F
:100A700008607047014600200022094B1B6803EA0A
:100A80000102074B14331B680B4013B10AB101205C
:100A900000E00020704702491431086070470000F0
:100AA00000040140FFFF0F0001460020FE4A1068CD
:100AB00000F03800084310607047FB49096821F0D6
:100AC0000801F94A11601146096801431160704735
:100AD000F549096821F01001F34A116011460968CF
:100AE000014311607047F148EF494860F0484860A1
:100AF0007047EE48EC494860ED4848607047EA4866
:100B0000006940F08000E84908617047E6480069E4
:100B100040F08000E449086170470420E249C96858
:100B200001F0010109B101200EE0DF49C96801F0BF
:100B3000040109B1022007E0DB49C96801F0100196
:100B400009B1032000E00420704700B502460423E9
:100B5000FFF7E3FF034603E0FFF7DFFF0346521E04
:100B6000012B01D1002AF7D102B90523184600BD97
:100B700030B5044604254FF43020FFF7E6FF054664
:100B8000042D17D1C848006940F00200C649086129
:100B900008464461006940F0400008614FF430208D
:100BA000FFF7D3FF0546C048006941F6FD710840D4
:100BB000BD490861284630BD10B504244FF43020EB
:100BC000FFF7C3FF0446042C16D1B748006940F074
:100BD0000400B54908610846006940F0400008611A
:100BE0004FF43020FFF7B1FF0446AF48006941F6EB
:100BF000FB710840AC490861204610BD00B50246B3
:100C00000423FFF78AFF034603E0FFF786FF03464E
:100C1000521E012B01D1002AF7D102B90523184633
:100C200000BD10B504244FF43020FFF7E7FF044661
:100C3000042C16D19C48006940F004009A490861D0
:100C40000846006940F0400008614FF43020FFF78B
:100C5000D5FF04469448006941F6FB71084092496B
:100C60000861204610BD00208F49C96901F00201CA
:100C700009B1012000E00020704730B5A52504240B
:100C8000FFF7F1FF00B100254FF43020FFF75DFFC3
:100C90000446042C3AD1854883498860844888609A
:100CA0000846006940F0200008610846006940F0ED
:100CB000400008614FF43020FFF747FF0446042C42
:100CC0001BD17948006941F6DF7108407649086117
:100CD0000846006940F01000086176480580E0028F
:100CE000FFF733FF0446052C10D06F48006941F62A
:100CF000EF7108406C49086108E0052C06D06A488D
:100D0000006941F6EF71084067490861204630BD2F
:100D100078B506460C46042500200090E802FFF74F
:100D200014FF0546042D24D15F48006940F00100FE
:100D30005D4908613480E802FFF707FF0546042D8E
:100D400010D1B01C0090200C00990880E802FFF739
:100D5000FCFE05465448006941F6FE7108405249C0
:100D6000086106E05048006941F6FE7108404E49AE
:100D70000861284678BD70B504460D460426F00289
:100D8000FFF7E3FE0646042E11D14748006940F004
:100D90000100454908612580F002FFF7D6FE0646AE
:100DA0004148006941F6FE7108403F4908613046FC
:100DB00070BD70B505460E460424E002FFF7C5FE7F
:100DC0000446042C17D13948374988603848886070
:100DD0000846006940F0100008612E80E002FFF72D
:100DE000B4FE0446052C06D02F48006941F6EF7189
:100DF00008402D490861204670BD2DE9F0430446A6
:100E00004FF6FF763746B046B1460425E443E6B2D6
:100E1000C4F30727C4F307484FEA1469E802FFF751
:100E200094FE0546042D49D120481F49886020487A
:100E300088600846006940F010000861FF2E06D067
:100E40001C4808300680E802FFF77FFE0546042DA7
:100E500008D1FF2F06D017480A300780E802FFF7B5
:100E600074FE0546042D0AD1B8F1FF0F07D01148D2
:100E70000C30A0F80080E802FFF767FE0546042D5D
:100E80000AD1B9F1FF0F07D00A480E30A0F8009040
:100E9000E802FFF75AFE0546052D0FD0024800690B
:100EA00041F6EF71084007E000200240230167454A
:100EB000AB89EFCD00F8FF1F664908612846BDE801
:100EC000F08330B5054604244FF43020FFF73DFE93
:100ED0000446042C41D160485E4988605F488860C0
:100EE0000846006940F0200008610846006940F0AB
:100EF000400008614FF43020FFF727FE0446042C21
:100F000022D15448006941F6DF7108405149086117
:100F10000846006940F0100008611DB100205049EA
:100F2000088002E0A5204E4908804FF43020FFF7EA
:100F30000CFE0446052C10D04648006941F6EF71BE
:100F400008404449086108E0052C06D04148006982
:100F500041F6DF7108403F490861204630BDF0B5D9
:100F600005460E46174604243B483A4988603B48EC
:100F70008860E002FFF7E9FD0446042C19D13548EA
:100F8000006940F010003349086147F0F800304331
:100F900028433349891C0880E002FFF7D6FD044648
:100FA000052C06D02B48006941F6EF71084029490D
:100FB00008612046F0BD2748C06980087047254871
:100FC000006A704700202349096801F0200109B137
:100FD000012000E00020704729B11E4A1269024337
:100FE0001C4B1A6104E01B4A12698243194B1A61B7
:100FF000704701460020012908D1164AD26902F043
:1010000001020AB1012008E0002006E0114AD2687E
:101010000A400AB1012000E0002070470D49C86075
:10102000704704200B49C96801F0010109B1012092
:101030000EE00849C96801F0040109B1022007E087
:101040000449C96801F0100109B1032000E004203F
:10105000704700000020024023016745AB89EFCDB7
:1010600000F8FF1F10B50446CC48844208D1012186
:10107000042000F02DFB0021042000F029FB46E0B5
:10108000C748844208D10121082000F021FB00213B
:10109000082000F01DFB3AE0C248844208D101213B
:1010A000102000F015FB0021102000F011FB2EE0B5
:1010B000BD48844208D10121202000F009FB002115
:1010C000202000F005FB22E0B848844208D101212D
:1010D000402000F0FDFA0021402000F0F9FA16E06F
:1010E000B348844208D10121802000F0F1FA0021A8
:1010F000802000F0EDFA0AE0AE48844207D10121D9
:10110000801500F0E5FA0021A01500F0E1FA10BD0D
:1011100010B50121084600F0DBFA0021012000F0A3
:10112000D7FA10BD2DE9F041024600250026002027
:1011300000230024002791F803C00CF00F0591F85C
:1011400003C00CF0100CBCF1000F03D091F802C0EA
:101150004CEA050591F800C0BCF1000F31D01468CD
:1011600000202BE04FF0010C0CFA00F3B1F800C0A6
:101170000CEA03069E4220D183004FF00F0C0CFABC
:1011800003F7BC4305FA03FC4CEA040491F803C0DE
:10119000BCF1280F06D14FF0010C0CFA00FCC2F88C
:1011A00014C00AE091F803C0BCF1480F05D14FF01C
:1011B000010C0CFA00FCC2F810C0401C0828D1D366
:1011C0001460B1F800C0BCF1FF0F34DD546800209A
:1011D0002EE000F1080C4FF0010808FA0CF3B1F80A
:1011E00000C00CEA03069E4221D183004FF00F0C91
:1011F0000CFA03F7BC4305FA03FC4CEA040491F82B
:1012000003C0BCF1280F05D100F1080C08FA0CF856
:10121000C2F8148091F803C0BCF1480F07D100F167
:10122000080C4FF0010808FA0CF8C2F81080401CB6
:101230000828CED35460BDE8F0814FF6FF710180DD
:10124000022181700421C17070470246002093681A
:101250000B400BB1012000E0002070470146886878
:1012600080B2704702460020D3680B400BB10120CA
:1012700000E0002070470146C86880B270470161F5
:101280007047416170470AB1016100E041617047F8
:10129000C16070474FF480320A438261816182618C
:1012A00082698269704702460020434B18684FF6F6
:1012B0008073184040EA021008433F4B18607047A3
:1012C0003E49C8617047F0B50A460023002400215A
:1012D000002500F00046B6F1004F02D1364EF1690C
:1012E00001E0354E7168C0F3034583B200F4401647
:1012F000B6F5401F08D121F070612F4E766826F0B8
:1013000070662D4F7E6012E000F48016B6F5801FE7
:1013100006D1032606FA05F4A14341F0706106E008
:10132000460D360103FA06F6B14341F0706122B171
:10133000460D360103FA06F6314300F00046B6F1D9
:10134000004F02D11C4EF16101E01B4E7160F0BDF7
:1013500030B500228B071C0F0F2303FA04F2164B43
:1013600008338C1053F824309343134C08348D10F9
:1013700044F8253023468C1053F824308C07240F72
:1013800000FA04F423430C4C08348D1044F8253043
:1013900030BD0A49DC310860704700000008014098
:1013A000000C0140001001400014014000180140F1
:1013B000001C0140002001400000014000002042CC
:1013C000DF48006840F00100DD49086008464068D9
:1013D000DC490840DA49486008460068DA490840B4
:1013E000D74908600846006820F480200860084655
:1013F000406820F4FE0048604FF41F00886070478A
:10140000CF49096821F48031CD4A1160114609683D
:1014100021F480211160B0F5803F03D0B0F5802F1A
:101420000ED106E0C649096841F48031C44A116012
:1014300007E0C349096841F4A021C14A116000E0F6
:1014400000BF00BF704710B50146002200230020F6
:101450004A11012A02D1BA4C236806E0022A02D1BD
:10146000B74C236A01E0B64C636A01F01F02012405
:1014700094401C400CB1012000E0002010BD38B5A4
:10148000002000900024002500BF3120FFF7DBFF83
:1014900005460098401C00900098B0F5A06F01D060
:1014A000002DF2D03120FFF7CEFF08B1012400E07B
:1014B0000024204638BD01460020A14A106820F0D3
:1014C000F80040EAC10010607047A049086070470A
:1014D000024600209A4B586820F47C1042EA01032F
:1014E0001843974B58607047984908667047014603
:1014F0000020934A506820F0030008435060704772
:101500008F48406800F00C007047014600208C4A6C
:10151000506820F0F00008435060704701460020FA
:10152000874A506820F4E0600843506070470146E5
:101530000020834A506820F4605040EAC1005060A7
:10154000704729B17E4A527A02437D4B5A7204E0B9
:101550007B4A527A82437A4B5A7270477B49D83120
:101560000860704701460020754A506820F44040EA
:101570000843506070470021714A20321170704A50
:1015800082F82010012802D004280AD104E00121A9
:101590006B4A2032117005E00521694A2032117032
:1015A00000E000BF00BF70476949086070476449A8
:1015B000096A0143624A116270476549443908600B
:1015C000704730B500210022002400235C4D6D6877
:1015D00005F00C0121B1042905D0082923D105E02B
:1015E0005C4D056022E05B4D05601FE0544D6D6869
:1015F00005F47012524D6D6805F48034022505EB38
:1016000092421CB9544D554305600BE04C4D6D683A
:1016100005F400351DB1504D5543056002E04D4DB8
:101620005543056002E04B4D056000BF00BF444DCF
:101630006D6805F0F0010909484D6B5C0568DD40F7
:1016400045603F4D6D6805F4E061090A434D6B5CF0
:101650004568DD4085603A4D6D6805F46051C90A02
:101660003E4D6B5C4568DD40C560354D6D6805F4E9
:101670004041890B3A4D6B5CC568B5FBF3F50561DC
:1016800030BD29B12E4A526902432D4B5A6104E004
:101690002B4A526982432A4B5A61704729B1284A22
:1016A00092690243264B9A6104E0254A926982437B
:1016B000234B9A61704729B1214AD2690243204BDA
:1016C000DA6104E01E4AD26982431D4BDA61704739
:1016D00029B11B4AD2680243194BDA6004E0184A68
:1016E000D2688243164BDA60704729B1144A1269F6
:1016F0000243134B1A6104E0114A12698243104BF2
:101700001A61704712494039086070470F49C86430
:1017100070470B49C87170470948406A40F08070B3
:1017200007494862704701460020054A92680A400E
:101730000AB1012000E0002070470149887270471B
:10174000001002400000FFF8FFFFF6FE00004242DA
:101750008004424200127A0000093D00000000208F
:101760001000002010B50446BE48844208D1012173
:101770008014FFF7ADFF0021A014FFF7A9FF16E0CA
:10178000B948844208D101210014FFF7AEFF0021BF
:101790002014FFF7AAFF0AE0B448844207D10121D0
:1017A000C013FFF7A2FF0021E013FFF79EFF10BD5B
:1017B00010B50022028802F441520B884C88234362
:1017C0008C882343CC8823430C8923434C892343AF
:1017D0008C892343CC8923431A430280838B4FF2A5
:1017E000FF74234083830B8A038210BD2DE9F04FE1
:1017F00085B005460C464FF0000902274FF000085F
:101800004FF0010B0026B246A88B4FF24001084072
:10181000A88302202884B5F81C90A068022801D172
:1018200000BF38E0A08810B94FF0010B01E04FF085
:10183000020B8D48854200D100E000BF6846FFF7EB
:10184000C0FEDDF800A0E088B0F5007F0AD14FEAC5
:101850001A2000EB80004000A168B0FBF1F0401DB1
:1018600086B20BE04FEA4B10BAFBF0F000EB8000C1
:101870004000A168B0FBF1F0401D86B20A20B6FB23
:10188000F0F606F00108A6EB0800C0F34F074FF68C
:10189000FF7000EA0828022F01DBFF2F02DD02277C
:1018A0004FF00008E08840EA080038432884A08808
:1018B000A1890843618808432188084340F40060F7
:1018C00040EA0909A5F81C9005B0BDE8F08F002199
:1018D000018041808180C180018141818181C181FC
:1018E0000721018270470021018041808180C180F1
:1018F0000221816000218181704721B1028842F07C
:101900004002028004E002884FF6BF731A40028052
:10191000704721B1828B42F48062828304E0828B23
:101920004FF6FF331A408283704730B500240023FE
:101930000C110125A540ABB21AB185881D438580E5
:1019400002E085889D43858030BD1AB183880B43B2
:10195000838002E083888B43838070478181704756
:101960000146888970474FF6FF62914204D0028891
:1019700042F48072028004E002884FF6FF631A404E
:101980000280704721B1828842F00402828004E024
:1019900082884FF6FB731A408280704702884FF2AC
:1019A000FF731A40028002880A4302807047018850
:1019B00041F480510180704721B1028842F4005205
:1019C000028004E002884DF6FF731A4002807047DF
:1019D00002460020012901D0108B00E0908A704758
:1019E0000146088A7047B1F5804F04D1028842F45D
:1019F0008042028004E002884BF6FF731A400280A6
:101A000070470246002013890B400BB1012000E013
:101A100000207047CA4302817047F0B5024600209B
:101A200000240023002501F00F070126BE40B4B2B8
:101A30000B1101269E40B3B2968806EA030516896B
:101A4000264016B10DB1012000E00020F0BD10B518
:101A5000002201F00F040123A3409AB2D343038173
:101A600010BD00000030014000380040003C004044
:101A700010B50446FE48844208D10121C014FFF786
:101A800027FE0021E014FFF723FEC4E0B4F1804FED
:101A900008D101210846FFF728FE00210120FFF7A9
:101AA00024FEB8E0F348844208D101210220FFF768
:101AB0001CFE00210220FFF718FEACE0EE48844235
:101AC00008D101210420FFF710FE00210420FFF7B8
:101AD0000CFEA0E0E948844208D101210820FFF76C
:101AE00004FE00210820FFF700FE94E0E448844251
:101AF00008D101211020FFF7F8FD00211020FFF789
:101B0000F4FD88E0DF48844208D101212020FFF75E
:101B1000ECFD00212020FFF7E8FD7CE0DA4884425C
:101B200008D101214014FFF7D3FD00216014FFF715
:101B3000CFFD70E0D548844209D10121C804FFF7E8
:101B4000C7FD00214FF40020FFF7C2FD63E0D0483D
:101B5000844209D101210805FFF7BAFD00214FF4A5
:101B60008010FFF7B5FD56E0CA48844209D1012133
:101B70004805FFF7ADFD00214FF40010FFF7A8FD69
:101B800049E0C548844208D101214020FFF7ADFD5E
:101B900000214020FFF7A9FD3DE0C048844208D164
:101BA00001218020FFF7A1FD00218020FFF79DFD8E
:101BB00031E0BB48844208D101218015FFF795FD33
:101BC0000021A015FFF791FD25E0B648844209D118
:101BD00001210804FFF77CFD00214FF48030FFF75E
:101BE00077FD18E0B048844209D101214804FFF78D
:101BF0006FFD00214FF40030FFF76AFD0BE0AB48AA
:101C0000844208D101218804FFF762FD00214FF4CE
:101C10008020FFF75DFD10BD00220288944B9842A2
:101C20000ED0994B98420BD0B0F1804F08D0914B19
:101C3000984205D0904B984202D0904B984204D1E4
:101C40004FF68F731A404B881A438D4B984207D03A
:101C50008C4B984204D04FF6FF431A40CB881A436E
:101C600002808B8883850B880385814B98420BD03B
:101C7000854B984208D08B4B984205D08A4B9842AE
:101C800002D08A4B984201D10B7A038601238382CA
:101C9000704770B5002400220023058C4FF6FE76B5
:101CA00035400584028C8388048B4FF68F752C4059
:101CB000B51E2C400D882C43751E2A400D892A43E1
:101CC0004D882A436A4DA8420BD06F4DA84208D0D8
:101CD000744DA84205D0744DA84202D0734DA8425D
:101CE00013D14FF6F7752A404D892A434FF6FB75FD
:101CF0002A408D882A434FF6FF652B404FF6FF554B
:101D00002B408D892B43CD892B4383800483CD8841
:101D10008586028470BD70B5002400220023058CE6
:101D20004FF6EF7635400584028C8388048B48F6A5
:101D3000FF752C404FF6FF452C400D884FF6FF767F
:101D400006EA05252C434FF6DF752A400D8906EA81
:101D500005152A434D8806EA05152A43444DA84235
:101D600002D0494DA8421DD14FF67F752A404D89BA
:101D70004FF6FF7606EA05152A434FF6BF752A404F
:101D80008D8806EA05152A434FF6FF352B404FF2A2
:101D9000FF752B408D8906EA85052B43CD8906EA20
:101DA00085052B4383800483CD880587028470BD1D
:101DB00070B5002400220023058C4FF6FF663540E5
:101DC0000584028C8388848B4FF68F752C404FF6E8
:101DD000FC752C400D882C434FF6FF552A400D8989
:101DE0004FF6FF7606EA05252A434D8806EA0525C3
:101DF0002A431F4DA84202D0234DA8421DD14FF2C5
:101E0000FF752A404D894FF6FF7606EA05252A43DD
:101E10004FF6FF352A408D8806EA05252A434EF6FF
:101E2000FF752B404DF6FF752B408D8906EA051591
:101E30002B43CD8906EA05152B4383808483CD8807
:101E40008587028470BD70B5002200230024058CB4
:101E50004EF6FF7635400584038C8488828B48F6E5
:101E6000FF752A404FF6FF452A400D8820E000000C
:101E7000002C01400004004000080040000C00401D
:101E8000001000400014004000340140004C0140AC
:101E9000005001400054014000180040001C004068
:101EA0000020004000400140004401400048014043
:101EB0004FF6FF7606EA05252A434DF6FF752B40BF
:101EC0000D8906EA05352B434D8806EA05352B4377
:101ED000FA4DA84202D0FA4DA84208D14BF6FF7540
:101EE0002C408D894FF6FF7606EA85152C438480B9
:101EF0008283CD88A0F84050038470BD828B4FF25E
:101F0000FF331A408283828B4FF6FF7303EA01236B
:101F10001A4382837047F0B50C4615460022002113
:101F20000026078C4EF6FF7C07EA0C070784828B9D
:101F3000018C4FF6FF7707EA043640F6FF473A4038
:101F40004FF6FF7707EA05273A434FF6FF7707EA90
:101F500003373A43D94FB8420ED0D94FB8420BD0CD
:101F6000B0F1804F08D0D74FB84205D0D64FB84215
:101F700002D0D64FB84206D14DF6FF77394046F42D
:101F80008057394305E047F6FF57394044F48057FE
:101F9000394382830184F0BD828B4FF6F3731A407C
:101FA0008283828B0A4382837047F0B50C461546C4
:101FB000002200210026078C4FF6FF6C07EA0C0771
:101FC0000784828B018C4FF6FF7707EA04264FF6D1
:101FD0000C773A404FF6FF7707EA03172F433A434F
:101FE000B64FB8420ED0B64FB8420BD0B0F1804FCA
:101FF00008D0B44FB84205D0B34FB84202D0B34F67
:10200000B84206D14FF6FF57394046F4807739433E
:1020100005E04FF2FF57394044F48077394382831B
:102020000184F0BD028B4FF2FF331A400283028B12
:102030004FF6FF7303EA01231A4302837047F0B59A
:102040000C461546002200210026078C4FF6EF7C37
:1020500007EA0C070784028B018C4FF6FF7707EA2B
:10206000041640F6FF473A404FF6FF7707EA03377A
:102070003A434FF6FF7707EA05273A438F4FB842B6
:102080000ED08F4FB8420BD0B0F1804F08D08D4F9B
:10209000B84205D08C4FB84202D08C4FB84206D11E
:1020A0004FF6DF77394046F01007394305E04FF629
:1020B0005F77394044F01007394302830184F0BD53
:1020C000028B4FF6F3731A400283028B0A4302839A
:1020D0007047F0B50C46154600220021068C4FF6DD
:1020E000FE773E400684028B018C4FF60C76324020
:1020F0007E1C06EA03162E433243704EB0420ED0C9
:102100006F4EB0420BD0B0F1804F08D06D4EB04250
:1021100005D06D4EB04202D06C4EB04206D14FF6A3
:10212000FD76314044F00106314305E04FF6F57687
:10213000314044F00106314302830184F0BD70B5A3
:1021400005460C465D4885420ED05D4885420BD061
:10215000B5F1804F08D05B48854205D05A4885428A
:1021600002D05A48854200D100E000BF208850B913
:102170002389A28861882846FFF7ABFFE1882846BB
:10218000FFF79EFF25E0208804280AD12389A28832
:1021900061882846FFF753FFE1882846FFF742FF92
:1021A00017E0208808280AD12389A2886188284658
:1021B000FFF7FBFEE1882846FFF7EEFE09E02389E2
:1021C000A28861882846FFF7A6FEE1882846FFF727
:1021D00095FE70BD2DE9F04105460C46002601270D
:1021E000608808B9022600E00026A088012801D1F5
:1021F000022700E001272088A0B92389A2886188EE
:102200002846FFF766FFE1882846FFF759FF238934
:102210003A4631462846FFF712FFE1882846FFF785
:1022200001FF13E02389A28861882846FFF707FF92
:10223000E1882846FFF7F6FE23893A4631462846CC
:10224000FFF747FFE1882846FFF73AFFBDE8F08136
:102250000A884B881A438B881A43CB881A430B8908
:102260001A434B891A438B891A43A0F844207047BC
:102270004FF6FF71818000210180C1804180017291
:1022800070470021018041808180C18001814181AE
:102290008181C181704700210180418001218180BD
:1022A0000021C1800181704700210180418081802F
:1022B000C18001814181818170470000002C014073
:1022C000003401400004004000080040000C0040C1
:1022D00021B1028842F00102028004E002884FF638
:1022E000FE731A400280704731B1B0F8442042F4C6
:1022F0000042A0F8442005E0B0F84420C2F30E02EA
:10230000A0F8442070471AB183890B43838102E00F
:1023100083898B43838170478182704741EA02033E
:10232000A0F8483070471AB183890B43838102E0DB
:1023300083898B438381704701894FF6F87211407E
:10234000018170470A46002101894FF68F731940B9
:1023500011430181704730B504460D462946204699
:10236000FFF7F0FF208940F00700208130BD2DE904
:10237000F04104460D4616461F46602D06D13B46E9
:10238000012231462046FFF75AFE05E03B46012276
:1023900031462046FFF79DFE29462046FFF7D2FF33
:1023A000208940F007002081BDE8F08130B50C465F
:1023B00000210189C9B24FF6FF7505EA03251543CF
:1023C00025432943018130BD2DE9F04105460E46E4
:1023D00017469846002443463A4631462846FFF7BA
:1023E000E5FF2C894FF6F870044044F007044FF6DF
:1023F0008F70044044F070042C81BDE8F081F0B58A
:1024000004460D4616461F463B46324629462046A0
:10241000FFF7CCFF208940F480402081F0BD01858A
:10242000828270470A46002101884FF68F73194057
:10243000114301807047F0B50C4615461E46002139
:10244000002200230189028B038C4FF6F877394074
:1024500021434FF6FC473A4040F201173A434FF60A
:10246000DD773B404FF6FF7707EA06172F433B43E4
:10247000018102830384F0BD0A460021018B4FF6DF
:102480008F7319401143018370470A460021018B65
:1024900048F6FF7319404FF6FF7303EA022319430E
:1024A000018370470A460021818B4FF68F731940D4
:1024B0001143818370470A460021818B48F6FF73E0
:1024C00019404FF6FF7303EA0223194381837047D3
:1024D00021B1028842F08002028004E002884FF6B7
:1024E0007F731A400280704721B1828842F0040253
:1024F000828004E082884FF6FB731A408280704726
:1025000021B1828842F00802828004E082884FF67E
:10251000F7731A408280704721B1828842F001022D
:10252000828004E082884FF6FE731A4082807047F2
:102530000A460021018B4FF6F773194011430183BE
:1025400070470A460021018B4FF2FF7319404FF686
:10255000FF7303EA02231943018370470A460021EF
:10256000818B4FF6F77319401143818370470A46F8
:102570000021818B4FF2FF7319404FF6FF7303EA7E
:1025800002231943818370470A460021018B4FF6CD
:10259000FB7319401143018370470A460021018BE8
:1025A0004FF6FF3319404FF6FF7303EA0223194336
:1025B000018370470A460021818B4FF6FB73194057
:1025C0001143818370470A460021818B4FF6FF3308
:1025D00019404FF6FF7303EA0223194381837047C2
:1025E0000A460021018B4FF67F7319401143018386
:1025F00070470A460021018BC1F30E014FF6FF73AD
:1026000003EA02231943018370470A460021818BA4
:102610004FF67F7319401143818370470A460021AA
:10262000818BC1F30E014FF6FF7303EA02231943B6
:10263000818370470A460021018C4FF6FD731940D3
:102640001143018470470A460021018C4FF6F7734D
:1026500019401143018470470A460021018C4FF64E
:10266000DF7319404FF6FF7303EA02131943018425
:1026700070470A460021018C4FF67F7319404FF6D0
:10268000FF7303EA02131943018470470A460021CD
:10269000018C4FF6FF5319404FF6FF7303EA0223F4
:1026A0001943018470470A460021018C4FF2FF73E1
:1026B00019404FF6FF7303EA022319430184704760
:1026C0000A460021018C4DF6FF7319404FF6FF7347
:1026D00003EA023319430184704730B50023012413
:1026E0008C40A3B2048C9C430484048C02FA01F550
:1026F000ADB22C43048430BD30B5002304248C409B
:10270000A3B2048C9C430484048C02FA01F5ADB29C
:102710002C43048430BD70B50346002000241846C5
:10272000183001258D40ACB21D8CA5431D8409B124
:10273000082909D100EB6100056825F070050560E6
:102740000568154305600EE00D1FC5F34E052844CE
:10275000056825F4E045056005684FF6FF7606EA52
:1027600002263543056070BD21B1028842F00202A5
:10277000028004E002884FF6FD731A400280704721
:1027800021B1028842F00402028004E002884FF680
:10279000FB731A400280704721B1828842F08002A8
:1027A000828004E082884FF67F731A4082807047EF
:1027B00002884FF6F7731A40028002880A430280AB
:1027C000704782884FF68F731A40828082880A434E
:1027D0008280704702894FF6F8731A40028102899D
:1027E0000A430281704702894FF67F731A400281C3
:1027F00002890A430281704781847047818570474E
:10280000818670470187704781877047A0F8401024
:10281000704702884FF6FF431A40028002880A433D
:10282000028070470146888E70470146088F7047C6
:102830000146888F70470146B1F840007047014655
:10284000888C70470146088D704702460020138A25
:102850000B400BB1012000E000207047CA43028208
:10286000704730B50246002000230024158A05EA8F
:102870000103958905EA010413B10CB1012000E0C0
:10288000002030BDCA4302827047000010B50446E4
:10289000FB48844209D101218803FEF719FF00217A
:1028A0004FF48040FEF714FF32E0F648844209D12D
:1028B00001214804FEF719FF00214FF40030FEF714
:1028C00014FF25E0F048844209D101218804FEF775
:1028D0000CFF00214FF48020FEF707FF18E0EB48C3
:1028E000844209D10121C804FEF7FFFE00214FF404
:1028F0000020FEF7FAFE0BE0E548844208D10121F2
:102900000805FEF7F2FE00214FF48010FEF7EDFE01
:1029100010BD2DE9F04786B005460E460024A246BC
:1029200000BFA1460027B08900B100BF2F462C8A06
:102930004CF6FF700440F08804432C82AC894EF6BC
:10294000F3100440B0883189084371890843044377
:10295000AC81AC8A4FF6FF400440B0890443AC829E
:1029600001A8FEF72EFEC648874202D1DDF810A06E
:1029700001E0DDF80CA0A88900F4004040B10AEBAA
:10298000CA0000EB0A1031684900B0FBF1F807E01B
:102990000AEBCA0000EB0A1031688900B0FBF1F8BD
:1029A0006420B8FBF0F004012009642101FB1089C8
:1029B000A88900F4004040B1322000EBC900B0FB10
:1029C000F1F000F00700044308E0322000EB0910AA
:1029D0006421B0FBF1F000F00F0004432C8106B03D
:1029E000BDE8F0874FF41651016000218180C1805D
:1029F00001810C21418100218181704710B502467F
:102A00000020108A4FF2FF0318400B884C882343A4
:102A10008C882343CC8823431843108210BD0021A7
:102A2000018041808180C180704721B1828942F458
:102A30000052828104E082894DF6FF731A40828140
:102A40007047F0B50346002400260025002040F61C
:102A50006A17B94200D100BF1846C1F3421401F011
:102A60001F06012707FA06F5012C01D10C3004E0FE
:102A7000022C01D1103000E014301AB107682F4346
:102A8000076002E00768AF430760F0BD1AB1838AB0
:102A90000B43838202E0838A8B4383827047028ADE
:102AA0004FF6F0731A400282028A0A43028270478C
:102AB00082894FF2FF731A40828182890A438281A0
:102AC000704721B1828942F00202828104E082894A
:102AD0004FF6FD731A4082817047028A4FF6DF730A
:102AE0001A400282028A0A430282704721B1028A96
:102AF00042F48042028204E0028A4BF6FF731A40DD
:102B000002827047C1F308028280704701468888BC
:102B1000C0F308007047818941F00101818170474D
:102B2000028BD2B20283028B42EA012202837047F7
:102B3000028B02F47F420283028B0A4302837047B6
:102B400021B1828A42F02002828204E0828A4FF61A
:102B5000DF731A408282704721B1828A42F01002EC
:102B6000828204E0828A4FF6EF731A4082827047B5
:102B700021B1828A42F00802828204E0828A4FF602
:102B8000F7731A408282704721B1828942F4004271
:102B9000828103E08289C2F30E028281704721B1F3
:102BA000828A42F40062828204E0828A4FF2FF73DA
:102BB0001A4082827047828A4FF6FB731A408282E3
:102BC000828A0A438282704721B1828A42F00202DD
:102BD000828204E0828A4FF6FD731A408282704737
:102BE00002460020B1F5007F00D100BF13880B40E2
:102BF0000BB1012000E00020704701F40072B2F533
:102C0000007F00D100BFCA430280704770B5024602
:102C1000002400230025002040F66A16B14200D1AE
:102C200000BFC1F3421501F01F03012606FA03F3AA
:102C3000012D02D19689334006E0022D02D1168A79
:102C4000334001E0968A33400C12012606FA04F460
:102C50001688344013B10CB1012000E0002070BD93
:102C600010B50022002340F66A14A14200D100BF33
:102C70000A1201249440A3B2DC43048010BD00007A
:102C8000003801400044004000480040004C004033
:102C9000005000402DE9F04F91B005468A46144699
:102CA0000120206015B911B0BDE8F08F012D0BD1C6
:102CB000BAF1000F02D10120606004E04FF0FF3054
:102CC000206001206060EEE705F1010B0120069015
:102CD0000790022647E0012044F8260000BF09E0E3
:102CE000411E06AA52F8211052F82020114444F83F
:102CF0002010401CB042F3DBAE4229D1BAF1010FE3
:102D000025D14FF0000920E0ABF10101A1EB090052
:102D100020F02FFC07463A460B460020FE491FF0E4
:102D200011F8CDE9020154F8290020F022FCCDE988
:102D30000001DDE9022320F083FCCDE9040120F04D
:102D4000BBFB44F8290009F10109D945DCDBAAE7FE
:102D5000012005E054F8201006AA42F82010401C7B
:102D6000B042F7DD761CAE42B5DD00BF9BE72DE932
:102D7000FF5F07460D4614462946384621F010F8F5
:102D80000390E648039921F00BF8804620F094F870
:102D900006463146304621F0BFF98346E0481EF032
:102DA000D5FE4FF08041019021F0B6F982463146C0
:102DB00021F0B2F981464FF07E5120F07DFF804630
:102DC000594620F079FF02900021284621F070F941
:102DD00001D8BDE8FF9F3146304621F09DF980467D
:102DE000029920F0DDFFE0604FF08040E16821F0C3
:102DF00093F92061E16861614FF07E5020603146B7
:102E0000304621F089F982464FF07E5121F044FB93
:102E100081464FF0804121F07FF98046029920F0F1
:102E2000BFFF60603146304621F076F90190BC4822
:102E30001EF08CFE4FF08041009021F06DF983462A
:102E4000314621F069F982464FF07E5121F092FA25
:102E50008146019920F030FF8046029920F0A0FFC2
:102E6000A06000BFB5E710B5AE4AAF49AF48FFF765
:102E70007EFFAF4AAF49AD48FFF779FFAE4AAF4991
:102E8000AA48FFF774FFAE4AAE49A848FFF76FFFA4
:102E9000AD4AAE49A548FFF76AFFAD4AAD49A34820
:102EA000FFF765FFAC4AAD49A048FFF760FFAC4AA9
:102EB000AC499E48FFF75BFFAB4A4FF080419B480F
:102EC000FFF755FFA94A01210A20FFF7E3FE10BDD5
:102ED0002DE9FE4F06460C461546A660A44800683C
:102EE000642829DBE168A86821F016F902902169BD
:102EF000686821F011F982462168686921F00CF9AF
:102F000001906168286921F007F90090A168E868DC
:102F100021F002F98346009920F0CEFE8146019906
:102F200020F0CAFE8046514621F0B6FA07460299C3
:102F300021F0B2FA606106E0A16861618C48006826
:102F4000401C8B49086060682060A0686060206950
:102F5000E060616921616069BDE8FE8F2DE9F05F85
:102F600006460C4615460027A168A86821F0D4F84B
:102F700081466168686821F0CFF88246304629684A
:102F800021F0CAF88346514621F086FA8046494628
:102F900021F082FA2060A168686921F0BDF88146BD
:102FA0006168286921F0B8F882462168E86821F054
:102FB000B3F88346514620F07FFE8046494620F014
:102FC0007BFE07466068A060206860603846BDE808
:102FD000F09F2DE9FE4F06460C461546A660E168B7
:102FE000A86821F099F802902169686821F094F8A6
:102FF00082462168686921F08FF80190616828692C
:1030000021F08AF80090A168E86821F085F88346ED
:10301000009920F051FE8146019920F04DFE804636
:10302000514621F039FA0746029921F035FA6061DC
:1030300060682060A06860602069E060616921616B
:103040006069BDE8FE8F00B587B03D4A49494A48EE
:103050000068FFF73DFF49490860394A4549183182
:1030600047480068FFF734FF44494860344A414903
:10307000303144480068FFF72BFF404988602E4AF2
:1030800041493D480068FFF723FF404908602A4A4C
:103090003D4918313A480068FFF71AFF3B4948603C
:1030A000254A3949303137480068FFF711FF374961
:1030B0008860084600680490084640680590084605
:1030C0008068069001A904A804F050FF30490398D5
:1030D00088612F480199C16102990162014688699E
:1030E0002C4921F019F82A49886188692A4921F078
:1030F000D3F9274988618869284921F00DF82449C6
:103100008861C869234921F007F82149C861C86965
:10311000224921F001F843E00000F0BFDB0F4940F5
:10312000DB0F493FA00F00200000A04200004843F1
:10313000B80F002000007042D00F002000004C4269
:10314000E80F00200000F041001000200000A04126
:1031500018100020000070413010002000002041B5
:10316000481000200000A04060100020780F0020D0
:10317000A40000200811002014080020A411002041
:10318000180800201C080020781000208C11002056
:1031900020370020CDCC1C3BCDCC1C410000C842C8
:1031A0008D49C861086A8D4920F0B6FF8A490862D6
:1031B000086A8B4920F0B0FF87490862894A8A492A
:1031C0008A480068FFF784FE89490860854A864975
:1031D000183188480068FFF77BFE85494860814ABE
:1031E0008149303184480068FFF772FE8049886069
:1031F00008460068049008464068059008468068C4
:10320000069001A904A804F0B1FE7C4903988861E6
:103210007A480199C16102990162014688696F4942
:1032200020F07AFF754988618869754921F034F981
:103230007249886188696A4920F06EFF6F49886128
:10324000C869664920F068FF6C49C861C86964496B
:1032500020F062FF6949C861086A604920F05CFF9C
:1032600066490862086A5E4920F056FF63490862B1
:1032700007B000BD2DE9FC5F83468A46584620F022
:1032800078F980465F4A604B20F0DAF9064632460C
:103290000B4600205D491FF0B7FF04461FF0C6FE35
:1032A00000905046009920F007FD04462146504604
:1032B00020F076FD01900198BDE8FC9F2DE9F04FCC
:1032C0008DB053480068401C51490860514800685F
:1032D00020F0C6FC06460F464D48006820F060F915
:1032E00080464D4A4D4B20F0ABF932463B46CDE986
:1032F000040120F0A5F982461FF020FD04460022BB
:10330000474B20F09DF9CDE908014248006820F0C4
:10331000A7FC04460D463E48006820F041F90646E9
:10332000404A414B20F08CF9824622462B4620F041
:1033300087F9CDE900011FF001FD80460022384BDE
:1033400020F07EF9CDE904013248006820F088FCC5
:10335000CDE900012E48006820F022F98046334A6A
:10336000334B20F06DF90646DDE9002320F068F9C3
:1033700004461FF0E3FC82460022294B20F060F94E
:10338000CDE90201DDE904231FF082FECDE906014B
:10339000DDE908231FF07CFECDE90A011FF046FE9F
:1033A00024490860244A08682449FFF7D7FD2149C9
:1033B0004860234A08682349FFF70BFE1D498860CF
:1033C000214A08681F491831FFF703FE1949C860F0
:1033D0000DB0BDE8F08F000020370020CDCC1C3BA5
:1033E0000000C84218100020C0100020140800205F
:1033F00098110020180800201C080020183C00200C
:10340000CDCC1C41282D4454FB2119400000F03F35
:10341000A8000020AC000020EBE4BF86D2737D4002
:1034200000005940C0EF3FB7E4AB814056EAFF9E31
:10343000DB8F6740B01100205C000020501100209D
:10344000740000205C110020D00F00201CB513F088
:10345000FCFF4FF4FA700DF089FB17E00C48007880
:103460000EF077FF0EF0C3FF06F0B6FC00F06DFE25
:103470000849D1E90101CDE9000106480368064881
:1034800007C801F0E9FC054801F0CFFFE6E70000BE
:103490003D070020EC130020481300203C5700207B
:1034A000704700BFFEE700BFFEE700BFFEE700BFBA
:1034B000FEE770477047704710B52248FEF781F865
:1034C000204800682049B0FBF1F02049086017F05F
:1034D00047FF10BD00BF1E4801684FF0E020826921
:1034E0001B4800688142F6D11848006800EB400391
:1034F000C3EBC010C2EBC000144B1B68B0FBF3F071
:1035000001EB4103C3EBC11300EBC300704710484C
:103510000068704730B50446FFF7DCFF054600BF82
:10352000FFF7D8FF401B04EB4401C1EBC411B0EB23
:10353000C10FF5D330BD06480068401C044908603F
:1035400070470000C011002040420F00B000002072
:10355000B400002030B502460B46002011E00024E4
:1035600042F82040002108E0002400EB400503EB76
:10357000C50545F821404C1C21B20629F4DB441C4A
:1035800020B20628EBDB30BD2DE9F05F06460F4682
:10359000914600244AE0601C05B243E004EB44027B
:1035A00007EBC20252F8241004EB440207EBC202FC
:1035B00052F8250020F0F4FB82460021504620F00E
:1035C000B1FC2DD056F82410504620F0A5FD8346BE
:1035D00056F8251020F0CEFE46F82500A8461CE03F
:1035E00008EB480007EBC00050F82410504620F0CC
:1035F00093FD834608EB480007EBC00050F8251008
:10360000584620F0B7FE08EB480107EBC10141F82E
:10361000250008F101000FFA80F8B8F1060FDFDB92
:10362000681C05B2062DB9DB601C04B2062CB2DBA7
:10363000052434E004EB440207EBC20252F82410E4
:1036400056F8240020F0ACFB46F824004FF07E50E2
:1036500004EB440107EBC10141F8240000251AE006
:1036600004EB440007EBC00050F825A056F82410E6
:10367000504620F051FD834656F8251020F07AFE82
:1036800046F82500002004EB440107EBC10141F896
:103690002500681C05B2A542E2DB601E04B2002CC6
:1036A000C8DA002405E056F8240049F82400601C1C
:1036B00004B2062CF7DBBDE8F09F2DE9F04F8BB08C
:1036C00006460F4690469A464FF07E5009900024D9
:1036D0003DE0E01C58F8209058F824105AF82400D7
:1036E00020F0DAFE0A904946484620F015FD019088
:1036F0000A9920F011FD02900A9920F00DFD8346F1
:10370000099920F037FE099049464FF0804020F09B
:1037100003FD4946029020F0FFFC83460A9920F001
:10372000FBFC03A941F8240049464FF0404020F03B
:10373000F3FC02900A9920F0EFFC83460A9920F0EE
:10374000EBFCE11C03AA42F82100601C04B2032C2C
:10375000BFDB00242BE003A951F82400099920F0D5
:10376000DBFC834656F8241020F0A6FA46F8240025
:10377000002518E003AA52F8251052F8240020F082
:10378000CBFC834604EB440007EBC00050F8251047
:10379000584620F091FA04EB440107EBC10141F8CF
:1037A0002500681C05B2062DE4DB601C04B2062C63
:1037B000D1DB0BB0BDE8F08F2DE9F04FC5B0074667
:1037C0000E4614464FF00008DFF8F893FE48449088
:1037D000002041904290439018213BA81DF08DF8A5
:1037E000182135A81DF089F818212FA81DF085F89B
:1037F00090210BA81DF081F801200A9000203D9037
:103800003C903B90F14840903F903E9090E008F112
:1038100001000FFA80F80BA92FA8FFF79BFE0025E7
:1038200018E005EB450057F82000419005EB4500F6
:1038300007EB80004068429005EB450007EB8000F5
:103840008068439041AB3BAA0BA92FA8FFF735FF37
:10385000681C05B2062DE4DB35AA0BA92FA8FFF7DB
:1038600093FE4099084620F057FC82463A99084654
:1038700020F052FC8346514620F092FA09903F997D
:10388000084620F049FC83463999084620F044FC5C
:103890005946069020F084FA82463E99084620F068
:1038A0003BFC05903899084620F036FC04900599B9
:1038B00020F076FA06903799084620F02DFC059006
:1038C0003699084620F028FC03903599084620F0E8
:1038D00023FC01903599084620F01EFC00900199C8
:1038E00020F0EAF90290039920F0E6F90490059996
:1038F00020F0E2F98346069920F0DEF95146079060
:1039000020F0DAF90890099920F0D6F944900025C2
:103910000CE035AA52F825103BAA52F8250020F0F9
:10392000BBFD3BA941F82500681C05B2062DF0DB64
:10393000B8F1140F05DA4946449820F0B9FCFFF4B9
:1039400066AFA3493E9820F0E7FB2060A0493F986E
:1039500020F0E2FB60609E49409820F0DDFBA06013
:1039600021683B9820F0D8FB306061683C9820F0DB
:10397000D3FB7060A1683D9820F0CEFBB0604FF0A3
:103980007E51206820F088FD20F0004A4FF07C51E5
:10399000504620F08DFC19D34FF07E51606820F026
:1039A0007BFD20F0004A4FF07C51504620F080FC17
:1039B0000CD34FF07E51A06820F06EFD20F0004A3D
:1039C0004FF07C51504620F073FC01D200200A9049
:1039D000306820F0004A7F49504620F069FC0FD340
:1039E000706820F0004A7B49504620F061FC07D304
:1039F000B06820F0004A7749504620F059FC01D2C7
:103A000000200A900A9845B0BDE8F08F10B592B03A
:103A100000244822704968461CF01BFF00BF29E0C3
:103A200004EB44015DF821006C4920F075FB04EBC8
:103A300044014DF8210004EB44016A4602EB810188
:103A40004868664920F068FB04EB44016A4602EBD3
:103A50008101486004EB440102EB810188685F4901
:103A600020F05AFB04EB44016A4602EB81018860B6
:103A7000601C84B2062CD3DB594A5A496846FFF7CA
:103A80009BFE5949087012B010BD012804D10021D5
:103A9000564A1170564A117070470146002000BF07
:103AA0000AE00022534B1A540023524A2432135482
:103AB00024321354421C90B22428F2DB00224E4BD5
:103AC0001A805A809A8003224C4B1A70012902D125
:103AD00000224B4B1A7070477FB50024494800887C
:103AE000B0F57A7F25D14848B0F900001FF041FDBC
:103AF00005460022454B1FF0A1FE1AD84448B0F9F4
:103B000000001FF036FD05460022424B1FF05CFD11
:103B10000FD84148B0F900001FF02BFD05460022E8
:103B20003E4B1FF08BFE04D83D480088401C3C49AA
:103B3000088034480088B0F57A7F7DD13248B0F9EA
:103B400000001FF016FD05460022304B1FF076FEE8
:103B500072D82F48B0F900001FF00BFD0546002277
:103B60002C4B1FF031FDF3D82B48B0F900001FF0AB
:103B700000FD05460022294B1FF060FE5CD8284856
:103B80000088B0F5167F57DB26480088002853D1FF
:103B90000120254908802549087000201249087035
:103BA00001204021224A0023CDE90032CDE9021054
:103BB0004FF07C5364224FF47A711E480CF045FE9E
:103BC00001203AE05F7089300000C8427FD6D03DC6
:103BD0000AE81C410000A040084702080AE81C3B14
:103BE00074010020E011002080010020C0010020AD
:103BF0003D070020C4120020A001002098010020F1
:103C0000910100203A0800204008002000C06240D6
:103C10003E080020008036C03C080020008036406E
:103C20008A01002060080020860600208201002012
:103C300000100140C45200204AE08021FA4A0023CB
:103C4000CDE90032CDE902104FF07C5364224FF4ED
:103C50007A71F6480CF0F9FD01200102F24A0023C6
:103C6000CDE90032CDE902104FF07C5364224FF4CD
:103C70007A71EF480CF0E9FD0620EE49087000204B
:103C8000ED490870ED490880002413E00020EC495C
:103C9000085504EB4401EB4A42F8210004EB4401CF
:103CA00002EB8101486004EB440102EB8101886072
:103CB000601C84B2062CE9DB0A20E349088001205D
:103CC000FFF7EBFE0120FFF7E0FE0020DF49088050
:103CD000DF480078012876D1DE480088B0F57A7F89
:103CE00021D1DD48B0F900001FF043FC0546002259
:103CF000DA4B1FF069FC16D8D948008898B9D94822
:103D0000008880B9D8480088401CD74908800846F8
:103D10000088642806DB0020C6490870D349088063
:103D2000D3490880CFE0CB480088B0F57A7F22D114
:103D3000C9480088F8B9CA48B0F900001FF019FC5A
:103D400005460022CB4B1FF079FD14D8C5480088EA
:103D500088B9C5480088401CC349088008460088C7
:103D60006428DFDB0120B34908700020BF490880C8
:103D7000BF490880A7E0B7480088B0F57A7F23D113
:103D8000B548008800BBB648B0F900001FF0F1FB51
:103D900005460022B84B1FF017FC15D8B148008823
:103DA00090B9B1480088401CAF4908800846008897
:103DB0006428B7DB02209F4908700020AB490880C7
:103DC000AB4908807FE085E0A2480088B0F57A7FA3
:103DD00022D1A1480088F8B9A1480088E0B9A148DB
:103DE000B0F900001FF0C5FB05460022A14B1FF0F3
:103DF00025FD11D89C480088401C9B490880084636
:103E0000008864285FDB03208A49087000209749F6
:103E100008809749088056E08E480088B0F57A7F80
:103E200022D18D480088F8B98D480088E0B98D48C6
:103E3000B0F900001FF09DFB054600228E4B1FF0DD
:103E4000C3FB11D888480088401C87490880084671
:103E50000088642837DB04207649087000208349F5
:103E60000880834908802EE07A480088B0F57A7F80
:103E700022D17948B0F900001FF07BFB05460022F3
:103E80007E4B1FF0DBFC17D275480088A0B975483F
:103E9000008888B974480088401C73490880084627
:103EA000008864280FDB05206249087000206F49F4
:103EB00008806F49088006E06B49088800EBD071E4
:103EC0004910694A118068480088C82802DB002030
:103ED000654908807FBD2DE9F0410126684B1A1F16
:103EE000111F02200AF088F866490870664B1A1FF5
:103EF000111F05200AF080F862494870634B1A1FB1
:103F0000111F08200AF078F85E4988705E49083968
:103F100008684FF07E5120F0BFFA8046002120F063
:103F2000C7F907D25849083908684FF07E5120F088
:103F3000B3FA08E05449083908684FF07E5120F080
:103F4000ABFA80F0004007461FF08AFE04460022CC
:103F50004F4B1FF073FC45D34B49083948684FF06D
:103F60007E5120F099FA0546002120F0A1F907D2F0
:103F70004549083948684FF07E5120F08DFA08E035
:103F80004149083948684FF07E5120F085FA80F0A9
:103F9000004004464FF07C5120F08AF922D33A4980
:103FA000083988684FF07E5120F076FA05460021E6
:103FB00020F07EF907D23449083988684FF07E51E5
:103FC00020F06AFA08E03049083988684FF07E51DD
:103FD00020F062FA80F0004004464FF07C5120F05F
:103FE00067F900D20026264908390868002120F028
:103FF0005FF903D222480838006804E020480838F6
:10400000006880F000400446224920F051F95ED358
:104010001B4908394868002120F04AF93CD2184869
:10402000083840683CE0000000100140D8520020F1
:10403000EC52002081010020890100208A0100202B
:1040400083010020041200203A070020720800209B
:10405000820100203A0800204008002000C062C011
:104060003E0800203C0800208C0100206C08002045
:104070006E08002000803640008036C000C06240DC
:10408000F41100208E010020001200205C1300209B
:104090000000E03F0000A040FE48406880F0004083
:1040A0000446FD4920F004F911D3FA49886800213B
:1040B00020F0FEF802D2F748806803E0F5488068F7
:1040C00080F000400446F44920F0F2F800D20026C7
:1040D000012E19D1F1480078B0B1F048407898B17C
:1040E000EC480068EE490860EA4840684860E948E2
:1040F00080688860EB480068EB490860E9484068E0
:104100004860E84880688860E4488078A8B1E7495A
:1041100008681FF03BFF00B2E5490880E3494868A2
:104120001FF034FF00B2E2494880E04988681FF080
:104130002DFF00B2DE49888004E00020DC490880C1
:10414000488088803046BDE8F0812DE9F04387B093
:1041500000240020049005900690D6480078052899
:1041600069DC002631E0D449D44800681FF0A0FF84
:1041700026D8D3480078012822D1002419E0D1495B
:1041800031F914001FF068FF8146CF491FF0C4FFCA
:1041900080464FF08B411FF003FE074604A850F8FD
:1041A000241038461FF088FD04A941F82400601C43
:1041B00084B2032CE3DB701C86B20020C049087077
:1041C0000120C249BB4A12788854B6F57A7FCADB0F
:1041D00030461FF059FF0746394604981FF0E0FDAE
:1041E000B449097801EB4101B94A42F8210030464F
:1041F0001FF04AFF0746394605981FF0D1FDAD492B
:10420000097801EB4101B24A02EB81014860304676
:104210001FF03AFF0746394606981FF0C1FDA54931
:10422000097801EB4101AA4A02EB8101886006206E
:10423000A049087000BFA5480078A4494978084003
:10424000A24989780840A149C97808409F4909795D
:1042500008409E494979084000287CD09D48007854
:10426000002878D101209B49087000209A490870E5
:104270009A4A9B499648FFF79FFA9A490870002589
:1042800004E0002091494855681C85B2062DF8DBF2
:1042900094480078012845D193480090904883685D
:1042A00042680168022009F064FF8F4800908B4843
:1042B000836842680168052009F05BFFFFF70BFE89
:1042C00000208A4908804021894ACDE90002894BB3
:1042D0004FF47A72CDE9021040F6B83186480CF0FE
:1042E000B4FA00208021824ACDE900024FF07C53CD
:1042F0004FF47A72CDE9021040F6B8317F480CF0E5
:10430000A4FA00204FF48071794ACDE900027C4B79
:104310004FF47A72CDE9021040F6B83179480CF0CA
:1043200094FA32E00020714908804021704ACDE9BA
:104330000002704BC822CDE9021041F288316E486C
:104340000CF083FA00208021694ACDE900024FF089
:104350007C53C82200E01CE0CDE9021041F2883114
:1043600066480CF072FA00204FF48071604ACDE983
:104370000002634BC822CDE9021041F28831614846
:104380000CF063FA002060490880012007B0BDE806
:10439000F0830020FAE710B50146002000BF13E0CB
:1043A00000224A4B1A5400EB4003494C44F82320A6
:1043B00000EB400304EB83035A6000EB400304EB83
:1043C00083039A60421C90B20628E9DB0022414B2D
:1043D0001A70012901D1404B1A7010BD2DE9FF411F
:1043E0000024002549480088B0F57A7F25D1484847
:1043F000B0F900001FF0BDF806460022454B1FF043
:104400001DFA1AD84448B0F900001FF0B2F8064669
:104410000022424B1FF012FA0FD84148B0F90000B9
:104420001FF0A7F8064600223C4B1FF007FA04D8FD
:104430003C480088401C3B49088034480088B0F55F
:104440007A7F73D13248B0F900001FF092F8064627
:104450000022304B1FF0F2F968D82F48B0F9000065
:104460001FF087F8064600222C4B1FF0E7F9F3D81F
:104470002B48B0F900001FF07CF806460022274BBD
:104480001FF0DCF952D827480088B0F57A7F4DDD5F
:1044900025484CE0EC1100200000A0408E010020D7
:1044A000E4530020F811002040070020541300209E
:1044B000B8000020810100200000A0415802002027
:1044C000120800200C0800200AE81C41830100208B
:1044D00004120020890100208201002074010020C4
:1044E000E011002080010020804900208606002085
:1044F000001001409A99993EC4520020D8520020E1
:10450000CDCC4C3FEC5200203A0700203A08002066
:104510004008002000C062403E0800200080364075
:104520003C080020960100206008002060E0008820
:1045300000285DD10220F84908800120F749087061
:104540000320F749087001204021F64A0023CDE9F5
:104550000032CDE90210F44B4FF4FA725100F348E7
:104560000CF073F901208021EE4A0023CDE90032DE
:10457000CDE902104FF07C534FF4FA725100EC4831
:104580000CF063F901200102E64A0023CDE9003274
:10459000CDE90210E74B4FF4FA725100E6480CF0F7
:1045A00054F90020E5490880E5490870002411E02D
:1045B0000020E4490855002508E0002004EBC40170
:1045C000E14A02EB81014855681C85B2242DF4DBD9
:1045D000601C84B2032CEBDB0B20DC49088001203B
:1045E000FFF7D9FE0120FFF750FA0020D8490880D4
:1045F000CA480078012876D1D6480088B0F57A7F7D
:1046000048D1D548B0F900001EF0B3FF064600229D
:10461000D24B1EF0D9FF3DD8D1480088002839D1AF
:10462000D0480088002835D1CF480088401CCE49AA
:1046300008800846008864282BDB0020B8490870F1
:10464000CA49088048808880002404E00020BE49D0
:104650000855601C84B2242CF8DB002405E00021FE
:10466000B94824300155601C84B2242CF7DB0024A7
:1046700005E00021B44848300155601C84B2242C68
:10468000F7DBBB4817F04EFB0020BA490880BA4957
:10469000088055E0AF480088B0F57A7F49D1AE4830
:1046A000B0F900001EF065FF06460022B34B1FF074
:1046B000C5F83ED2AA480088D0BBAA480088B8BB3B
:1046C000A9480088401CA84908800846008864283A
:1046D00036DB0120924908700020A44908804880F8
:1046E0008880002405E032E0002097490855601CCE
:1046F00084B2242CF8DB002405E000219248243009
:104700000155601C84B2242CF7DB002405E0002155
:104710008D4848300155601C84B2242CF7DB944846
:1047200017F000FB0020934908809349088007E0B8
:10473000FFE78D49088800EBD07149108A4A118043
:1047400089480088C82802DBC82087490880BDE85E
:10475000FF8110B50146002001EBC1027A4B13F82E
:10476000222001EBC103784C04EB83035B781A40F1
:1047700001EBC10304EB83039B781A4001EBC103F7
:1047800004EB8303DB781A4001EBC10304EB8303E2
:104790001B791A4001EBC10304EB83035B791A40D8
:1047A00001EBC10304EB83039B791A4001EBC103C6
:1047B00004EB8303DB791A4001EBC10304EB8303B1
:1047C0001B7A1A4001EBC10304EB83035B7A1A40A6
:1047D00001EBC10304EB83039B7A1A4001EBC10395
:1047E00004EB8303DB7A1A4001EBC10304EB830380
:1047F0001B7B1A4001EBC10304EB83035B7B1A4074
:1048000001EBC10304EB83039B7B1A4001EBC10363
:1048100004EB8303DB7B1A4001EBC10304EB83034E
:104820001B7C1A4001EBC10304EB83035B7C1A4041
:1048300001EBC10304EB83039B7C1A4001EBC10332
:1048400004EB8303DB7C1A4001EBC10304EB83031D
:104850001B7D1A4001EBC10304EB83035B7D1A400F
:1048600001EBC10304EB83039B7D1A4001EBC10301
:1048700004EB8303DB7D1A4001EBC10304EB8303EC
:104880001B7E1A4001EBC10304EB83035B7E1A40DD
:1048900001EBC10304EB83039B7E1A4001EBC103D0
:1048A00004EB8303DB7E1A4001EBC10304EB8303BB
:1048B0001B7F1A4001EBC10304EB83035B7F1A40AB
:1048C00001EBC10304EB83039B7F1A4001EBC1039F
:1048D00004EB8303DB7F1A4001EBC10304EB83038A
:1048E00093F820301A4001EBC10304EB830393F8E3
:1048F00021301A4001EBC10304EB830393F822300B
:104900001A4001EBC10304EB830393F823301A40F0
:1049100002B1012010BD0000860600209101002098
:104920009801002000100140CDCC4C3EC452002024
:10493000D85200203333333FEC5200209601002040
:104940009201002093010020C41200203A070020A9
:10495000720800203A0800204008002000C062C011
:104960003E0800203C0800209A010020A001002001
:10497000345A00206C0800206E08002000C06240FD
:104980000FB42DE9FF47002400BF11E0FE48005D91
:10499000FE490855FC482430015DFC48243001558F
:1049A000F9484830015DF94848300155601C84B22F
:1049B000242CEBDBF648007803287DDA0024AFE0F6
:1049C000F44931F914001FF047FB814611991FF09B
:1049D000D1FC804600211FF06BFC09D2ED4931F972
:1049E00014001FF039FB804611991FF0C3FC0AE048
:1049F000E84931F914001FF02FFB804611991FF090
:104A0000B9FC80F0004007461FF02AF90546002255
:104A1000E14B1EF0D9FD0BD8DD48007840B9DF48E6
:104A2000B0F90400B0F5006F02DB0120D64908554B
:104A3000D84931F914001FF00FFB814610991FF07F
:104A400099FC804600211FF033FC09D2D14931F98D
:104A500014001FF001FB804610991FF08BFC0AE048
:104A6000CC4931F914001FF0F7FA804610991FF075
:104A700081FC80F0004007461FF0F2F80546002256
:104A8000C54B1EF0A1FD0DD8C1480078012809D101
:104A9000C248B0F90200B0F5006F03DB0121BA484B
:104AA00024300155BB4931F914001FF0D5FA814675
:104AB0000F991FF05FFC00E095E0804600211FF099
:104AC000F7FB09D2B34931F914001FF0C5FA80464B
:104AD0000F991FF04FFC0AE0AE4931F914001FF0A6
:104AE000BBFA80460F991FF045FC80F00040074656
:104AF0001FF0B6F805460022A74B1EF065FD0DD845
:104B0000A3480078022809D1A448B0F90000B0F504
:104B1000006F03DB01219C4848300155601C84B2C2
:104B2000242CFFF64DAF9E49B1F900001FF094FA16
:104B300005460C991FF0BCFA05D80C981FF026FA10
:104B400000B2974908809649B1F906001FF084FA2F
:104B500005460C991FF0ACFB05D20C981FF016FA15
:104B600000B28F49C8808E49B1F902001FF074FA73
:104B700005460D991FF09CFA05D80D981FF006FA0E
:104B800000B2874948808649B1F908001FF064FAED
:104B900005460D991FF08CFB05D20D981FF0F6F914
:104BA00000B27F4908817E49B1F904001FF054FA30
:104BB00005460E991FF07CFA05D80E981FF0E6F90D
:104BC00000B2774988807649B1F90A001FF044FAAB
:104BD00005460E991FF06CFB05D20E981FF0D6F912
:104BE00000B26F4948810020FFF7B3FDA8B1012052
:104BF0006C490880002404E0002063490855601CCB
:104C000084B2242CF8DB6748408818B90120604939
:104C1000087002E003205E4908700120FFF799FD4B
:104C2000B0B101205F494880002405E000215648CA
:104C300024300155601C84B2242CF7DB594880884D
:104C400018B902205249087002E003205049087048
:104C50000220FFF77EFDB0B1012052498880002478
:104C600005E00021484848300155601C84B2242CDE
:104C7000F7DB4C48008818B900204549087002E06D
:104C80000320434908704248007818B946491198F2
:104C9000086012E03E480078012803D1424910988C
:104CA00008600AE03A480078022803D13E490F988C
:104CB000086002E000203C4908603A48008801286A
:104CC0007CD1384840880128FAD1364880880128AC
:104CD000F6D13349B1F90610314AB2F900208818EB
:104CE0001EF047FC074600224FF080431EF08CFA6E
:104CF00005461EF09BF92A49C860B1F90810284AF8
:104D0000B2F9022088181EF034FC074600224FF04A
:104D100080431EF079FA05461EF088F920490861A3
:104D2000B1F90A101E4AB2F9042088181EF021FCBD
:104D3000074600224FF080431EF066FA05461EF03B
:104D400075F9174948610846C06818490860144851
:104D50000069486012484069886000201149088055
:104D60004880888012490870124908800F490868F5
:104D70001FF00CF900B2104908800C4948681FF078
:104D800005F900B20C491AE0C412002058120020A4
:104D900098010020C0460208000014400C080020C2
:104DA00030130020A00100209C010020541300209B
:104DB0009101002086060020B800002045E04880D0
:104DC000FE4988681FF0E2F800B2FD4988800020A3
:104DD0004021FC4ACDE90002FB4B4FF47A72CDE949
:104DE000021041F28831F9480BF02FFD002080219C
:104DF000F44ACDE900024FF07C534FF47A72CDE9CA
:104E0000021041F28831F2480BF01FFD00204FF4F0
:104E10008071EC4ACDE90002EE4B4FF47A72CDE995
:104E2000021041F28831EC480BF00FFDEB48009086
:104E3000EB4843690269C168082009F09AF901202A
:104E400004B0BDE8F0075DF814FB0020F8E710B5EA
:104E5000E44816F067FF10BD0FB42DE9FF470024AA
:104E600000BF11E0E048005DE0490855DE4824300D
:104E7000015DDE4824300155DB484830015DDB48E8
:104E800048300155601C84B2242CEBDBD8480078F4
:104E900003287DDA0024AFE0D64931F914001FF071
:104EA000DBF8814611991FF065FA804600211FF05A
:104EB000FFF909D2CF4931F914001FF0CDF880462F
:104EC00011991FF057FA0AE0CA4931F914001FF08E
:104ED000C3F8804611991FF04DFA80F00040074654
:104EE0001EF0BEFE05460022C34B1EF06DFB0BD824
:104EF000BF48007840B9C148B0F90400B0F5006F70
:104F000002DB0120B8490855BA4931F914001FF0F5
:104F1000A3F8814610991FF02DFA804600211FF05A
:104F2000C7F909D2B34931F914001FF095F880464A
:104F300010991FF01FFA0AE0AE4931F914001FF072
:104F40008BF8804610991FF015FA80F00040074654
:104F50001EF086FE05460022A74B1EF035FB0DD83D
:104F6000A3480078012809D1A448B0F90200B0F59F
:104F7000006F03DB01219C48243001559D4931F924
:104F800014001FF069F881460F991FF0F3F900E053
:104F900065E0804600211FF08BF909D2954931F96F
:104FA00014001FF059F880460F991FF0E3F90AE04A
:104FB000904931F914001FF04FF880460F991FF007
:104FC000D9F980F0004007461EF04AFE054600224F
:104FD000894B1EF0F9FA0DD885480078022809D1CE
:104FE0008648B0F90000B0F5006F03DB01217E4870
:104FF00048300155601C84B2242CFFF64DAF0024CC
:105000002BE07A48005D18B97748005D012811D07F
:1050100076482430005D20B973482430005D0128B3
:1050200008D072484830005DA8B96F484830005D2C
:10503000012810D16B480CA90EC916F07AFE7048F1
:105040007049714A714BCDE90021029000226C2118
:10505000644816F013FF601C84B2242CD1DB0020BE
:10506000FFF777FBA8B1012069490880002404E01C
:1050700000205D490855601C84B2242CF8DB64488C
:10508000408818B901205A49087002E003205849A5
:1050900008700120FFF75DFBB0B101205C4948803A
:1050A000002405E00021504824300155601C84B2E2
:1050B000242CF7DB5648808818B902204C49087028
:1050C00002E003204A4908700220FFF742FBB0B11A
:1050D00001204F498880002405E0002142484830E3
:1050E0000155601C84B2242CF7DB4948008818B9AC
:1050F00000203F49087002E003203D4908703C4809
:10510000007818B943491198086012E038480078CF
:10511000012803D13F49109808600AE0344800781C
:10512000022803D13B490F98086002E0002039496A
:10513000086037480088012872D135484088012826
:105140006ED13348808801286AD1304800681B49F5
:1051500008602D48006848602A4800688860002080
:105160002B490880488088802B4908702B4908808B
:10517000124908681EF00AFF00B2114908800F4961
:1051800048681EF003FF00B20D4948800B4988684B
:105190001EF0FCFE00B20A49888000204021094A26
:1051A000CDE90002084B4FF47A72CDE9021041F2CA
:1051B000883106480BF049FB002032E054130020F0
:1051C000B8000020001001409A99993EC452002076
:1051D000D8520020CDCC4C3FEC520020804900201A
:1051E00030130020345A0020C4120020581200202E
:1051F00098010020C0460208000014400C0800205E
:10520000B4010020B0010020AC010020A801002062
:10521000A00100209C0100209101002086060020B2
:105220002DE08021FE4ACDE900024FF07C534FF47F
:105230007A72CDE9021041F28831FA480BF005FB91
:1052400000204FF48071F64ACDE90002F64B4FF48E
:105250007A72CDE9021041F28831F4480BF0F5FA88
:10526000F3480090F348836842680168082008F01A
:1052700080FF012004B0BDE8F0075DF814FB0020BA
:10528000F8E72DE9F04790B00024202108A81BF092
:1052900034FB202168461BF030FB00BF0EE06B465C
:1052A00003EB840208AB03EB840163000B3398B279
:1052B00008F05DFEE0490855601C84B2082CEEDB66
:1052C000DD48007800285AD0DB484078002856D0C6
:1052D000D9488078002852D0D748C07800284ED0CE
:1052E000D548007900284AD0D3484079002846D0D4
:1052F000D1488079002842D0CF48C07900283ED0DC
:10530000002439E008A850F82400CC4901EB04112E
:1053100008605DF82400C94901EB041148605DF89C
:10532000241008AA52F824001EF0C6FC05464FF0CF
:1053300080411EF035FDC14901EB041188605DF824
:10534000241008AA52F824001FF0A6F882461EF086
:1053500087FC0746BA4ABB4B1EF072F905461EF0A1
:10536000DBF81FFA80F948461EF08EFEB34901EBC8
:105370000411C860601C84B2082CC3DB19E000244F
:1053800015E0B148AD4901EB04110860AF48AB49E5
:1053900001EB04114860AE48A84901EB0411886094
:1053A000AC48A64901EB0411C860601C84B2082C0B
:1053B000E7DB10B0BDE8F087002000BF0AE0A44999
:1053C0009E4A02EB001211609C4A02EB00125160EF
:1053D000411C88B20828F2DB704710B510219E48A6
:1053E000FBF733FFD8B94FF4FA700BF0BFFB102175
:1053F0009948FBF72AFFB8B900BF10219648FBF780
:1054000024FF0028F9D0FFF7D7FF01209349087047
:105410000E209349088001209249087004E0FFF7AC
:1054200030FF00208D49087010BD2DE9F84F8146EE
:105430000024A2468948007810B95046BDE8F88F8C
:10544000002463E039F814001EF01EFE05467B4878
:1054500000EB0410016828461EF02AFF07D839F82F
:1054600014001EF011FE754901EB0411086039F8B3
:1054700014001EF009FE0546704800EB0410416858
:1054800028461EF015FE07D239F814001EF0FCFD68
:105490006A4901EB04114860684A02EB0412516842
:1054A000664A02EB041210681EF006FC07464FF035
:1054B00080411EF075FC06461EF0AEFD85B2284602
:1054C0001EF0E2FD5D4901EB041188605B4A02EBCE
:1054D00004125168594A02EB041210681EF0DCFFF6
:1054E00000901EF0BDFB0746554A564B1EF0A8F82B
:1054F00005461EF011F81FFA80FB58461EF0C4FD49
:105500004E4901EB0411C860601C84B2082C99DB81
:1055100010215148FBF799FE50BB4FF4FA600BF095
:1055200025FB10214C48FBF790FE08BB00BF102163
:105530004948FBF78AFE0028F9D000204749087047
:10554000484908704FF0010A00240FE03B4B03EB81
:1055500004135A68394B03EB0413196863000B33C7
:1055600098B2334B08F0D4FD601C84B2082CEDDBFC
:10557000504663E77FB53C480088B0F57A7F25D177
:105580003A48B0F900001DF0F4FF04460022384B01
:105590001EF054F91AD83748B0F900001DF0E9FFA1
:1055A00004460022344B1EF049F90FD83348B0F9B5
:1055B00000001DF0DEFF04460022314B1EF004F80F
:1055C00004D830480088401C2E49088026480088AE
:1055D000B0F57A7F7ED12548B0F900001DF0C9FFF3
:1055E00004460022224B1EF029F973D82148B0F955
:1055F00000001DF0BEFF044600221F4B1EF01EF9E6
:1056000068D81E48B0F900001DF0B3FF0446002220
:105610001B4B1DF0D9FF5DD81A48008834E000000C
:1056200000100140D8520020CDCC4C3FEC5200205D
:105630008049002054130020B8010020601300208E
:105640009A9999999999B93F0000FA4400007A44CF
:105650000080BB440000C842000C0140C001002093
:105660003A0700203D0700203A08002040080020AB
:1056700000C062403E080020008036403C08002008
:10568000008036C0C2010020B0F57A7F46DDFE48BA
:105690000088F8B94FF07E50FC4908600020FC49B2
:1056A0000880FC490880FC4AF8480168542008F04A
:1056B00002FD01204021F94A0023CDE90032CDE965
:1056C0000210F74B4FF4FA7241F28831F5480BF0B3
:1056D000BCF800E022E001208021F04A0023CDE95F
:1056E0000032CDE90210EE4B4FF4FA7241F28831EC
:1056F000ED480BF0AAF801200102E84A0023CDE9A9
:105700000032CDE90210E64B4FF4FA7241F28831D3
:10571000E6480BF09AF80F20E54908807FBD1CB5DC
:10572000E4488088E3498988E24CCDE90010A388E9
:10573000A288A188A08811F0DEF81CBD08B515F07C
:10574000E8FD48200BF0D8F910F0F0FE11F04CFF06
:1057500010F018FF12F049FB11F044F84FF4A0606C
:10576000FAF754FD1C208DF8000000208DF8010090
:105770008DF8020001208DF803006846FAF74BFD12
:1057800017208DF8000001208DF8010000208DF811
:10579000020001208DF803006846FAF73CFD352031
:1057A0008DF8000002208DF8010000208DF8020025
:1057B00001208DF803006846FAF72DFD64200BF0F8
:1057C000D5F9B54A0021542008F075FC82E013F0A9
:1057D00080FFFFF7A4FF0021084610F0CEFC012156
:1057E000002010F0CAFCB4A20021084610F093FB80
:1057F0000221002010F0C1FC0321002010F0BDFCAC
:10580000B1A20221002010F086FB0421002010F03C
:10581000B4FC0521002010F0B0FCAFA20421002050
:1058200010F079FBAFA20421502010F0BEF9A1497D
:1058300088881EF029FC044622460521502010F0DD
:1058400006FA0621002010F098FCA8A206210020EC
:1058500010F0ABF90721002010F08FFCA8A207215F
:10586000002010F0A2F9A849C8881EF00DFC0446DB
:10587000224607211E2010F0EAF9A2A207212D20BE
:1058800010F093F9A04988881EF0FEFB04462246DA
:105890000721372010F0DBF99AA20721462010F0EB
:1058A00084F9994948881EF0EFFB044622460721F7
:1058B000502010F0CCF993A207215F2010F075F969
:1058C000914908881EF0E0FB044622460721692022
:1058D00010F0BDF97BE700208C490978012901D13E
:1058E00040F001008A490978012901D140F0020005
:1058F00088490978012901D140F00400704770B54A
:1059000088B0002005900690079083480088B0F585
:105910007A7F25D18148B0F900001DF02AFE0446A7
:1059200000227F4B1DF08AFF1AD87E48B0F9000094
:105930001DF01FFE044600227B4B1DF045FE0FD8D4
:105940007A48B0F900001DF014FE04460022764BA0
:105950001DF03AFE04D876480088401C744908803F
:105960006D480088B0F57A7F7ED16C48B0F90000B0
:105970001DF0FFFD04460022694B1DF05FFF73D848
:105980006848B0F900001DF0F4FD04460022664BA3
:105990001DF01AFEF3D86548B0F900001DF0E9FDCE
:1059A00004460022604B1DF00FFEE8D860480088D6
:1059B000B0F57A7F58DB344800880028D4D15D48A0
:1059C00000685D4908605D4800685D490860002521
:1059D0001FE05C495C4800681EF06AFB19D800248F
:1059E00010E05A4931F914001EF036FB064605A8AE
:1059F00050F8241030461EF05FF905A941F8240044
:105A0000601C04B2032CECDB05200BF0AFF8681C23
:105A100085B2C82DDDDB28461EF036FB0446214644
:105A200005981EF0BDF94A49086028461EF02CFB77
:105A30000446214606981EF0B3F9454948602846B9
:105A40001EF022FB0446214607981EF0A9F94049A2
:105A500088600020364908800F4A374801680020D6
:105A600008F029FB0C4A00E097E035480168012066
:105A700008F021FB00204021084ACDE90002084B34
:105A80006422CDE9021065E060080020C401002016
:105A9000C20100207208002080490020001001404F
:105AA000CDCC4C3EC4520020D8520020EC520020F5
:105AB0003A0700203C570020506C65617365204D0B
:105AC0006F76652054687200446F776E2057686562
:105AD0006E204553430000004265657020426565B5
